{
  "_format": "hh-sol-artifact-1",
  "contractName": "MyNFT",
  "sourceName": "contracts/MyNFT.sol",
  "abi": [
    {
      "inputs": [],
      "stateMutability": "nonpayable",
      "type": "constructor"
    },
    {
      "inputs": [
        {
          "internalType": "address",
          "name": "sender",
          "type": "address"
        },
        {
          "internalType": "uint256",
          "name": "balance",
          "type": "uint256"
        },
        {
          "internalType": "uint256",
          "name": "needed",
          "type": "uint256"
        },
        {
          "internalType": "uint256",
          "name": "tokenId",
          "type": "uint256"
        }
      ],
      "name": "ERC1155InsufficientBalance",
      "type": "error"
    },
    {
      "inputs": [
        {
          "internalType": "address",
          "name": "approver",
          "type": "address"
        }
      ],
      "name": "ERC1155InvalidApprover",
      "type": "error"
    },
    {
      "inputs": [
        {
          "internalType": "uint256",
          "name": "idsLength",
          "type": "uint256"
        },
        {
          "internalType": "uint256",
          "name": "valuesLength",
          "type": "uint256"
        }
      ],
      "name": "ERC1155InvalidArrayLength",
      "type": "error"
    },
    {
      "inputs": [
        {
          "internalType": "address",
          "name": "operator",
          "type": "address"
        }
      ],
      "name": "ERC1155InvalidOperator",
      "type": "error"
    },
    {
      "inputs": [
        {
          "internalType": "address",
          "name": "receiver",
          "type": "address"
        }
      ],
      "name": "ERC1155InvalidReceiver",
      "type": "error"
    },
    {
      "inputs": [
        {
          "internalType": "address",
          "name": "sender",
          "type": "address"
        }
      ],
      "name": "ERC1155InvalidSender",
      "type": "error"
    },
    {
      "inputs": [
        {
          "internalType": "address",
          "name": "operator",
          "type": "address"
        },
        {
          "internalType": "address",
          "name": "owner",
          "type": "address"
        }
      ],
      "name": "ERC1155MissingApprovalForAll",
      "type": "error"
    },
    {
      "inputs": [
        {
          "internalType": "address",
          "name": "owner",
          "type": "address"
        }
      ],
      "name": "OwnableInvalidOwner",
      "type": "error"
    },
    {
      "inputs": [
        {
          "internalType": "address",
          "name": "account",
          "type": "address"
        }
      ],
      "name": "OwnableUnauthorizedAccount",
      "type": "error"
    },
    {
      "anonymous": false,
      "inputs": [
        {
          "indexed": true,
          "internalType": "address",
          "name": "account",
          "type": "address"
        },
        {
          "indexed": true,
          "internalType": "address",
          "name": "operator",
          "type": "address"
        },
        {
          "indexed": false,
          "internalType": "bool",
          "name": "approved",
          "type": "bool"
        }
      ],
      "name": "ApprovalForAll",
      "type": "event"
    },
    {
      "anonymous": false,
      "inputs": [
        {
          "indexed": true,
          "internalType": "address",
          "name": "previousOwner",
          "type": "address"
        },
        {
          "indexed": true,
          "internalType": "address",
          "name": "newOwner",
          "type": "address"
        }
      ],
      "name": "OwnershipTransferred",
      "type": "event"
    },
    {
      "anonymous": false,
      "inputs": [
        {
          "indexed": true,
          "internalType": "address",
          "name": "operator",
          "type": "address"
        },
        {
          "indexed": true,
          "internalType": "address",
          "name": "from",
          "type": "address"
        },
        {
          "indexed": true,
          "internalType": "address",
          "name": "to",
          "type": "address"
        },
        {
          "indexed": false,
          "internalType": "uint256[]",
          "name": "ids",
          "type": "uint256[]"
        },
        {
          "indexed": false,
          "internalType": "uint256[]",
          "name": "values",
          "type": "uint256[]"
        }
      ],
      "name": "TransferBatch",
      "type": "event"
    },
    {
      "anonymous": false,
      "inputs": [
        {
          "indexed": true,
          "internalType": "address",
          "name": "operator",
          "type": "address"
        },
        {
          "indexed": true,
          "internalType": "address",
          "name": "from",
          "type": "address"
        },
        {
          "indexed": true,
          "internalType": "address",
          "name": "to",
          "type": "address"
        },
        {
          "indexed": false,
          "internalType": "uint256",
          "name": "id",
          "type": "uint256"
        },
        {
          "indexed": false,
          "internalType": "uint256",
          "name": "value",
          "type": "uint256"
        }
      ],
      "name": "TransferSingle",
      "type": "event"
    },
    {
      "anonymous": false,
      "inputs": [
        {
          "indexed": false,
          "internalType": "string",
          "name": "value",
          "type": "string"
        },
        {
          "indexed": true,
          "internalType": "uint256",
          "name": "id",
          "type": "uint256"
        }
      ],
      "name": "URI",
      "type": "event"
    },
    {
      "inputs": [],
      "name": "COMMON_SWORD",
      "outputs": [
        {
          "internalType": "uint256",
          "name": "",
          "type": "uint256"
        }
      ],
      "stateMutability": "view",
      "type": "function"
    },
    {
      "inputs": [],
      "name": "GOLD_COIN",
      "outputs": [
        {
          "internalType": "uint256",
          "name": "",
          "type": "uint256"
        }
      ],
      "stateMutability": "view",
      "type": "function"
    },
    {
      "inputs": [],
      "name": "HERO_SWORD",
      "outputs": [
        {
          "internalType": "uint256",
          "name": "",
          "type": "uint256"
        }
      ],
      "stateMutability": "view",
      "type": "function"
    },
    {
      "inputs": [],
      "name": "LEGENDARY_SWORD",
      "outputs": [
        {
          "internalType": "uint256",
          "name": "",
          "type": "uint256"
        }
      ],
      "stateMutability": "view",
      "type": "function"
    },
    {
      "inputs": [],
      "name": "VALOROUS_SWORD",
      "outputs": [
        {
          "internalType": "uint256",
          "name": "",
          "type": "uint256"
        }
      ],
      "stateMutability": "view",
      "type": "function"
    },
    {
      "inputs": [
        {
          "internalType": "address",
          "name": "account",
          "type": "address"
        },
        {
          "internalType": "uint256",
          "name": "id",
          "type": "uint256"
        }
      ],
      "name": "balanceOf",
      "outputs": [
        {
          "internalType": "uint256",
          "name": "",
          "type": "uint256"
        }
      ],
      "stateMutability": "view",
      "type": "function"
    },
    {
      "inputs": [
        {
          "internalType": "address[]",
          "name": "accounts",
          "type": "address[]"
        },
        {
          "internalType": "uint256[]",
          "name": "ids",
          "type": "uint256[]"
        }
      ],
      "name": "balanceOfBatch",
      "outputs": [
        {
          "internalType": "uint256[]",
          "name": "",
          "type": "uint256[]"
        }
      ],
      "stateMutability": "view",
      "type": "function"
    },
    {
      "inputs": [
        {
          "internalType": "address",
          "name": "account",
          "type": "address"
        },
        {
          "internalType": "address",
          "name": "operator",
          "type": "address"
        }
      ],
      "name": "isApprovedForAll",
      "outputs": [
        {
          "internalType": "bool",
          "name": "",
          "type": "bool"
        }
      ],
      "stateMutability": "view",
      "type": "function"
    },
    {
      "inputs": [
        {
          "internalType": "address",
          "name": "account",
          "type": "address"
        },
        {
          "internalType": "uint256",
          "name": "id",
          "type": "uint256"
        },
        {
          "internalType": "uint256",
          "name": "amount",
          "type": "uint256"
        },
        {
          "internalType": "bytes",
          "name": "data",
          "type": "bytes"
        }
      ],
      "name": "mint",
      "outputs": [],
      "stateMutability": "nonpayable",
      "type": "function"
    },
    {
      "inputs": [],
      "name": "owner",
      "outputs": [
        {
          "internalType": "address",
          "name": "",
          "type": "address"
        }
      ],
      "stateMutability": "view",
      "type": "function"
    },
    {
      "inputs": [],
      "name": "renounceOwnership",
      "outputs": [],
      "stateMutability": "nonpayable",
      "type": "function"
    },
    {
      "inputs": [
        {
          "internalType": "address",
          "name": "from",
          "type": "address"
        },
        {
          "internalType": "address",
          "name": "to",
          "type": "address"
        },
        {
          "internalType": "uint256[]",
          "name": "ids",
          "type": "uint256[]"
        },
        {
          "internalType": "uint256[]",
          "name": "values",
          "type": "uint256[]"
        },
        {
          "internalType": "bytes",
          "name": "data",
          "type": "bytes"
        }
      ],
      "name": "safeBatchTransferFrom",
      "outputs": [],
      "stateMutability": "nonpayable",
      "type": "function"
    },
    {
      "inputs": [
        {
          "internalType": "address",
          "name": "from",
          "type": "address"
        },
        {
          "internalType": "address",
          "name": "to",
          "type": "address"
        },
        {
          "internalType": "uint256",
          "name": "id",
          "type": "uint256"
        },
        {
          "internalType": "uint256",
          "name": "value",
          "type": "uint256"
        },
        {
          "internalType": "bytes",
          "name": "data",
          "type": "bytes"
        }
      ],
      "name": "safeTransferFrom",
      "outputs": [],
      "stateMutability": "nonpayable",
      "type": "function"
    },
    {
      "inputs": [
        {
          "internalType": "address",
          "name": "operator",
          "type": "address"
        },
        {
          "internalType": "bool",
          "name": "approved",
          "type": "bool"
        }
      ],
      "name": "setApprovalForAll",
      "outputs": [],
      "stateMutability": "nonpayable",
      "type": "function"
    },
    {
      "inputs": [
        {
          "internalType": "bytes4",
          "name": "interfaceId",
          "type": "bytes4"
        }
      ],
      "name": "supportsInterface",
      "outputs": [
        {
          "internalType": "bool",
          "name": "",
          "type": "bool"
        }
      ],
      "stateMutability": "view",
      "type": "function"
    },
    {
      "inputs": [
        {
          "internalType": "address",
          "name": "newOwner",
          "type": "address"
        }
      ],
      "name": "transferOwnership",
      "outputs": [],
      "stateMutability": "nonpayable",
      "type": "function"
    },
    {
      "inputs": [
        {
          "internalType": "uint256",
          "name": "",
          "type": "uint256"
        }
      ],
      "name": "uri",
      "outputs": [
        {
          "internalType": "string",
          "name": "",
          "type": "string"
        }
      ],
      "stateMutability": "view",
      "type": "function"
    }
  ],
  "bytecode": "0x60806040523480156200001157600080fd5b50336040518060800160405280604c8152602001620037f6604c91396200003e816200018560201b60201c565b50600073ffffffffffffffffffffffffffffffffffffffff168173ffffffffffffffffffffffffffffffffffffffff1603620000b45760006040517f1e4fbdf7000000000000000000000000000000000000000000000000000000008152600401620000ab919062000bce565b60405180910390fd5b620000c5816200019a60201b60201c565b50620000ec3360006103e8604051806020016040528060008152506200026060201b60201c565b6200011033600180604051806020016040528060008152506200026060201b60201c565b620001353360026001604051806020016040528060008152506200026060201b60201c565b6200015a3360036001604051806020016040528060008152506200026060201b60201c565b6200017f3360046001604051806020016040528060008152506200026060201b60201c565b6200139b565b806002908162000196919062000e65565b5050565b6000600360009054906101000a900473ffffffffffffffffffffffffffffffffffffffff16905081600360006101000a81548173ffffffffffffffffffffffffffffffffffffffff021916908373ffffffffffffffffffffffffffffffffffffffff1602179055508173ffffffffffffffffffffffffffffffffffffffff168173ffffffffffffffffffffffffffffffffffffffff167f8be0079c531659141344cd1fd0a4f28419497f9722a3daafe3b4186f6b6457e060405160405180910390a35050565b600073ffffffffffffffffffffffffffffffffffffffff168473ffffffffffffffffffffffffffffffffffffffff1603620002d55760006040517f57f447ce000000000000000000000000000000000000000000000000000000008152600401620002cc919062000bce565b60405180910390fd5b600080620002ea85856200030c60201b60201c565b91509150620003046000878484876200033c60201b60201c565b505050505050565b60608060405191506001825283602083015260408201905060018152826020820152604081016040529250929050565b62000350858585856200041560201b60201c565b600073ffffffffffffffffffffffffffffffffffffffff168473ffffffffffffffffffffffffffffffffffffffff16146200040e57600062000397620007e760201b60201c565b90506001845103620003f5576000620003bb600086620007ef60201b90919060201c565b90506000620003d5600086620007ef60201b90919060201c565b9050620003ed8389898585896200080360201b60201c565b50506200040c565b6200040b818787878787620009c660201b60201c565b5b505b5050505050565b80518251146200046257815181516040517f5b0599910000000000000000000000000000000000000000000000000000000081526004016200045992919062000f5d565b60405180910390fd5b600062000474620007e760201b60201c565b905060005b8351811015620006985760006200049a8286620007ef60201b90919060201c565b90506000620004b38386620007ef60201b90919060201c565b9050600073ffffffffffffffffffffffffffffffffffffffff168873ffffffffffffffffffffffffffffffffffffffff1614620005e457600080600084815260200190815260200160002060008a73ffffffffffffffffffffffffffffffffffffffff1673ffffffffffffffffffffffffffffffffffffffff168152602001908152602001600020549050818110156200058c57888183856040517f03dee4c500000000000000000000000000000000000000000000000000000000815260040162000583949392919062000f8a565b60405180910390fd5b81810360008085815260200190815260200160002060008b73ffffffffffffffffffffffffffffffffffffffff1673ffffffffffffffffffffffffffffffffffffffff16815260200190815260200160002081905550505b600073ffffffffffffffffffffffffffffffffffffffff168773ffffffffffffffffffffffffffffffffffffffff161462000682578060008084815260200190815260200160002060008973ffffffffffffffffffffffffffffffffffffffff1673ffffffffffffffffffffffffffffffffffffffff16815260200190815260200160002060008282546200067a919062001006565b925050819055505b505080620006909062001041565b905062000479565b5060018351036200075f576000620006bb600085620007ef60201b90919060201c565b90506000620006d5600085620007ef60201b90919060201c565b90508573ffffffffffffffffffffffffffffffffffffffff168773ffffffffffffffffffffffffffffffffffffffff168473ffffffffffffffffffffffffffffffffffffffff167fc3d58168c5ae7397731d063d5bbf3d657854427343f4c083240f7aacaa2d0f6285856040516200074f92919062000f5d565b60405180910390a45050620007e0565b8373ffffffffffffffffffffffffffffffffffffffff168573ffffffffffffffffffffffffffffffffffffffff168273ffffffffffffffffffffffffffffffffffffffff167f4a39dc06d4c0dbc64b70af90fd698a233a518aa5d07e595d983b8c0526c8f7fb8686604051620007d79291906200115c565b60405180910390a45b5050505050565b600033905090565b600060208202602084010151905092915050565b60008473ffffffffffffffffffffffffffffffffffffffff163b1115620009be578373ffffffffffffffffffffffffffffffffffffffff1663f23a6e6187878686866040518663ffffffff1660e01b81526004016200086795949392919062001231565b6020604051808303816000875af1925050508015620008a657506040513d601f19601f82011682018060405250810190620008a39190620012f7565b60015b62000930573d8060008114620008d9576040519150601f19603f3d011682016040523d82523d6000602084013e620008de565b606091505b5060008151036200092857846040517f57f447ce0000000000000000000000000000000000000000000000000000000081526004016200091f919062000bce565b60405180910390fd5b805160208201fd5b63f23a6e6160e01b7bffffffffffffffffffffffffffffffffffffffffffffffffffffffff1916817bffffffffffffffffffffffffffffffffffffffffffffffffffffffff191614620009bc57846040517f57f447ce000000000000000000000000000000000000000000000000000000008152600401620009b3919062000bce565b60405180910390fd5b505b505050505050565b60008473ffffffffffffffffffffffffffffffffffffffff163b111562000b81578373ffffffffffffffffffffffffffffffffffffffff1663bc197c8187878686866040518663ffffffff1660e01b815260040162000a2a95949392919062001329565b6020604051808303816000875af192505050801562000a6957506040513d601f19601f8201168201806040525081019062000a669190620012f7565b60015b62000af3573d806000811462000a9c576040519150601f19603f3d011682016040523d82523d6000602084013e62000aa1565b606091505b50600081510362000aeb57846040517f57f447ce00000000000000000000000000000000000000000000000000000000815260040162000ae2919062000bce565b60405180910390fd5b805160208201fd5b63bc197c8160e01b7bffffffffffffffffffffffffffffffffffffffffffffffffffffffff1916817bffffffffffffffffffffffffffffffffffffffffffffffffffffffff19161462000b7f57846040517f57f447ce00000000000000000000000000000000000000000000000000000000815260040162000b76919062000bce565b60405180910390fd5b505b505050505050565b600073ffffffffffffffffffffffffffffffffffffffff82169050919050565b600062000bb68262000b89565b9050919050565b62000bc88162000ba9565b82525050565b600060208201905062000be5600083018462000bbd565b92915050565b600081519050919050565b7f4e487b7100000000000000000000000000000000000000000000000000000000600052604160045260246000fd5b7f4e487b7100000000000000000000000000000000000000000000000000000000600052602260045260246000fd5b6000600282049050600182168062000c6d57607f821691505b60208210810362000c835762000c8262000c25565b5b50919050565b60008190508160005260206000209050919050565b60006020601f8301049050919050565b600082821b905092915050565b60006008830262000ced7fffffffffffffffffffffffffffffffffffffffffffffffffffffffffffffffff8262000cae565b62000cf9868362000cae565b95508019841693508086168417925050509392505050565b6000819050919050565b6000819050919050565b600062000d4662000d4062000d3a8462000d11565b62000d1b565b62000d11565b9050919050565b6000819050919050565b62000d628362000d25565b62000d7a62000d718262000d4d565b84845462000cbb565b825550505050565b600090565b62000d9162000d82565b62000d9e81848462000d57565b505050565b5b8181101562000dc65762000dba60008262000d87565b60018101905062000da4565b5050565b601f82111562000e155762000ddf8162000c89565b62000dea8462000c9e565b8101602085101562000dfa578190505b62000e1262000e098562000c9e565b83018262000da3565b50505b505050565b600082821c905092915050565b600062000e3a6000198460080262000e1a565b1980831691505092915050565b600062000e55838362000e27565b9150826002028217905092915050565b62000e708262000beb565b67ffffffffffffffff81111562000e8c5762000e8b62000bf6565b5b62000e98825462000c54565b62000ea582828562000dca565b600060209050601f83116001811462000edd576000841562000ec8578287015190505b62000ed4858262000e47565b86555062000f44565b601f19841662000eed8662000c89565b60005b8281101562000f175784890151825560018201915060208501945060208101905062000ef0565b8683101562000f37578489015162000f33601f89168262000e27565b8355505b6001600288020188555050505b505050505050565b62000f578162000d11565b82525050565b600060408201905062000f74600083018562000f4c565b62000f83602083018462000f4c565b9392505050565b600060808201905062000fa1600083018762000bbd565b62000fb0602083018662000f4c565b62000fbf604083018562000f4c565b62000fce606083018462000f4c565b95945050505050565b7f4e487b7100000000000000000000000000000000000000000000000000000000600052601160045260246000fd5b6000620010138262000d11565b9150620010208362000d11565b92508282019050808211156200103b576200103a62000fd7565b5b92915050565b60006200104e8262000d11565b91507fffffffffffffffffffffffffffffffffffffffffffffffffffffffffffffffff820362001083576200108262000fd7565b5b600182019050919050565b600081519050919050565b600082825260208201905092915050565b6000819050602082019050919050565b620010c58162000d11565b82525050565b6000620010d98383620010ba565b60208301905092915050565b6000602082019050919050565b6000620010ff826200108e565b6200110b818562001099565b93506200111883620010aa565b8060005b838110156200114f578151620011338882620010cb565b97506200114083620010e5565b9250506001810190506200111c565b5085935050505092915050565b60006040820190508181036000830152620011788185620010f2565b905081810360208301526200118e8184620010f2565b90509392505050565b600081519050919050565b600082825260208201905092915050565b60005b83811015620011d3578082015181840152602081019050620011b6565b60008484015250505050565b6000601f19601f8301169050919050565b6000620011fd8262001197565b620012098185620011a2565b93506200121b818560208601620011b3565b6200122681620011df565b840191505092915050565b600060a08201905062001248600083018862000bbd565b62001257602083018762000bbd565b62001266604083018662000f4c565b62001275606083018562000f4c565b8181036080830152620012898184620011f0565b90509695505050505050565b600080fd5b60007fffffffff0000000000000000000000000000000000000000000000000000000082169050919050565b620012d1816200129a565b8114620012dd57600080fd5b50565b600081519050620012f181620012c6565b92915050565b60006020828403121562001310576200130f62001295565b5b60006200132084828501620012e0565b91505092915050565b600060a08201905062001340600083018862000bbd565b6200134f602083018762000bbd565b8181036040830152620013638186620010f2565b90508181036060830152620013798185620010f2565b905081810360808301526200138f8184620011f0565b90509695505050505050565b61244b80620013ab6000396000f3fe608060405234801561001057600080fd5b506004361061010a5760003560e01c80636f1de1b3116100a2578063a0625f0f11610071578063a0625f0f146102a7578063a22cb465146102c5578063e985e9c5146102e1578063f242432a14610311578063f2fde38b1461032d5761010a565b80636f1de1b314610245578063715018a614610263578063731133e91461026d5780638da5cb5b146102895761010a565b80631f909688116100de5780631f909688146101bd5780632eb2c2d6146101db57806334845148146101f75780634e1273f4146102155761010a565b8062fdd58e1461010f57806301ffc9a71461013f5780630bff6a9b1461016f5780630e89341c1461018d575b600080fd5b610129600480360381019061012491906117ac565b610349565b60405161013691906117fb565b60405180910390f35b6101596004803603810190610154919061186e565b6103a3565b60405161016691906118b6565b60405180910390f35b610177610485565b60405161018491906117fb565b60405180910390f35b6101a760048036038101906101a291906118d1565b61048a565b6040516101b4919061198e565b60405180910390f35b6101c561051e565b6040516101d291906117fb565b60405180910390f35b6101f560048036038101906101f09190611bad565b610523565b005b6101ff6105cb565b60405161020c91906117fb565b60405180910390f35b61022f600480360381019061022a9190611d3f565b6105d0565b60405161023c9190611e75565b60405180910390f35b61024d6106df565b60405161025a91906117fb565b60405180910390f35b61026b6106e4565b005b61028760048036038101906102829190611e97565b6106f8565b005b610291610712565b60405161029e9190611f29565b60405180910390f35b6102af61073c565b6040516102bc91906117fb565b60405180910390f35b6102df60048036038101906102da9190611f70565b610741565b005b6102fb60048036038101906102f69190611fb0565b610757565b60405161030891906118b6565b60405180910390f35b61032b60048036038101906103269190611ff0565b6107eb565b005b61034760048036038101906103429190612087565b610893565b005b600080600083815260200190815260200160002060008473ffffffffffffffffffffffffffffffffffffffff1673ffffffffffffffffffffffffffffffffffffffff16815260200190815260200160002054905092915050565b60007fd9b67a26000000000000000000000000000000000000000000000000000000007bffffffffffffffffffffffffffffffffffffffffffffffffffffffff1916827bffffffffffffffffffffffffffffffffffffffffffffffffffffffff1916148061046e57507f0e89341c000000000000000000000000000000000000000000000000000000007bffffffffffffffffffffffffffffffffffffffffffffffffffffffff1916827bffffffffffffffffffffffffffffffffffffffffffffffffffffffff1916145b8061047e575061047d82610919565b5b9050919050565b600481565b606060028054610499906120e3565b80601f01602080910402602001604051908101604052809291908181526020018280546104c5906120e3565b80156105125780601f106104e757610100808354040283529160200191610512565b820191906000526020600020905b8154815290600101906020018083116104f557829003601f168201915b50505050509050919050565b600281565b600061052d610983565b90508073ffffffffffffffffffffffffffffffffffffffff168673ffffffffffffffffffffffffffffffffffffffff161415801561057257506105708682610757565b155b156105b65780866040517fe237d9220000000000000000000000000000000000000000000000000000000081526004016105ad929190612114565b60405180910390fd5b6105c3868686868661098b565b505050505050565b600181565b6060815183511461061c57815183516040517f5b05999100000000000000000000000000000000000000000000000000000000815260040161061392919061213d565b60405180910390fd5b6000835167ffffffffffffffff811115610639576106386119b5565b5b6040519080825280602002602001820160405280156106675781602001602082028036833780820191505090505b50905060005b84518110156106d4576106a461068c8287610a8390919063ffffffff16565b61069f8387610a9790919063ffffffff16565b610349565b8282815181106106b7576106b6612166565b5b602002602001018181525050806106cd906121c4565b905061066d565b508091505092915050565b600381565b6106ec610aab565b6106f66000610b32565b565b610700610aab565b61070c84848484610bf8565b50505050565b6000600360009054906101000a900473ffffffffffffffffffffffffffffffffffffffff16905090565b600081565b61075361074c610983565b8383610c91565b5050565b6000600160008473ffffffffffffffffffffffffffffffffffffffff1673ffffffffffffffffffffffffffffffffffffffff16815260200190815260200160002060008373ffffffffffffffffffffffffffffffffffffffff1673ffffffffffffffffffffffffffffffffffffffff16815260200190815260200160002060009054906101000a900460ff16905092915050565b60006107f5610983565b90508073ffffffffffffffffffffffffffffffffffffffff168673ffffffffffffffffffffffffffffffffffffffff161415801561083a57506108388682610757565b155b1561087e5780866040517fe237d922000000000000000000000000000000000000000000000000000000008152600401610875929190612114565b60405180910390fd5b61088b8686868686610e01565b505050505050565b61089b610aab565b600073ffffffffffffffffffffffffffffffffffffffff168173ffffffffffffffffffffffffffffffffffffffff160361090d5760006040517f1e4fbdf70000000000000000000000000000000000000000000000000000000081526004016109049190611f29565b60405180910390fd5b61091681610b32565b50565b60007f01ffc9a7000000000000000000000000000000000000000000000000000000007bffffffffffffffffffffffffffffffffffffffffffffffffffffffff1916827bffffffffffffffffffffffffffffffffffffffffffffffffffffffff1916149050919050565b600033905090565b600073ffffffffffffffffffffffffffffffffffffffff168473ffffffffffffffffffffffffffffffffffffffff16036109fd5760006040517f57f447ce0000000000000000000000000000000000000000000000000000000081526004016109f49190611f29565b60405180910390fd5b600073ffffffffffffffffffffffffffffffffffffffff168573ffffffffffffffffffffffffffffffffffffffff1603610a6f5760006040517f01a83514000000000000000000000000000000000000000000000000000000008152600401610a669190611f29565b60405180910390fd5b610a7c8585858585610f0c565b5050505050565b600060208202602084010151905092915050565b600060208202602084010151905092915050565b610ab3610983565b73ffffffffffffffffffffffffffffffffffffffff16610ad1610712565b73ffffffffffffffffffffffffffffffffffffffff1614610b3057610af4610983565b6040517f118cdaa7000000000000000000000000000000000000000000000000000000008152600401610b279190611f29565b60405180910390fd5b565b6000600360009054906101000a900473ffffffffffffffffffffffffffffffffffffffff16905081600360006101000a81548173ffffffffffffffffffffffffffffffffffffffff021916908373ffffffffffffffffffffffffffffffffffffffff1602179055508173ffffffffffffffffffffffffffffffffffffffff168173ffffffffffffffffffffffffffffffffffffffff167f8be0079c531659141344cd1fd0a4f28419497f9722a3daafe3b4186f6b6457e060405160405180910390a35050565b600073ffffffffffffffffffffffffffffffffffffffff168473ffffffffffffffffffffffffffffffffffffffff1603610c6a5760006040517f57f447ce000000000000000000000000000000000000000000000000000000008152600401610c619190611f29565b60405180910390fd5b600080610c778585610fbe565b91509150610c89600087848487610f0c565b505050505050565b600073ffffffffffffffffffffffffffffffffffffffff168273ffffffffffffffffffffffffffffffffffffffff1603610d035760006040517fced3e100000000000000000000000000000000000000000000000000000000008152600401610cfa9190611f29565b60405180910390fd5b80600160008573ffffffffffffffffffffffffffffffffffffffff1673ffffffffffffffffffffffffffffffffffffffff16815260200190815260200160002060008473ffffffffffffffffffffffffffffffffffffffff1673ffffffffffffffffffffffffffffffffffffffff16815260200190815260200160002060006101000a81548160ff0219169083151502179055508173ffffffffffffffffffffffffffffffffffffffff168373ffffffffffffffffffffffffffffffffffffffff167f17307eab39ab6107e8899845ad3d59bd9653f200f220920489ca2b5937696c3183604051610df491906118b6565b60405180910390a3505050565b600073ffffffffffffffffffffffffffffffffffffffff168473ffffffffffffffffffffffffffffffffffffffff1603610e735760006040517f57f447ce000000000000000000000000000000000000000000000000000000008152600401610e6a9190611f29565b60405180910390fd5b600073ffffffffffffffffffffffffffffffffffffffff168573ffffffffffffffffffffffffffffffffffffffff1603610ee55760006040517f01a83514000000000000000000000000000000000000000000000000000000008152600401610edc9190611f29565b60405180910390fd5b600080610ef28585610fbe565b91509150610f038787848487610f0c565b50505050505050565b610f1885858585610fee565b600073ffffffffffffffffffffffffffffffffffffffff168473ffffffffffffffffffffffffffffffffffffffff1614610fb7576000610f56610983565b90506001845103610fa6576000610f77600086610a9790919063ffffffff16565b90506000610f8f600086610a9790919063ffffffff16565b9050610f9f83898985858961139c565b5050610fb5565b610fb4818787878787611550565b5b505b5050505050565b60608060405191506001825283602083015260408201905060018152826020820152604081016040529250929050565b805182511461103857815181516040517f5b05999100000000000000000000000000000000000000000000000000000000815260040161102f92919061213d565b60405180910390fd5b6000611042610983565b905060005b83518110156112575760006110658286610a9790919063ffffffff16565b9050600061107c8386610a9790919063ffffffff16565b9050600073ffffffffffffffffffffffffffffffffffffffff168873ffffffffffffffffffffffffffffffffffffffff16146111a957600080600084815260200190815260200160002060008a73ffffffffffffffffffffffffffffffffffffffff1673ffffffffffffffffffffffffffffffffffffffff1681526020019081526020016000205490508181101561115157888183856040517f03dee4c5000000000000000000000000000000000000000000000000000000008152600401611148949392919061220c565b60405180910390fd5b81810360008085815260200190815260200160002060008b73ffffffffffffffffffffffffffffffffffffffff1673ffffffffffffffffffffffffffffffffffffffff16815260200190815260200160002081905550505b600073ffffffffffffffffffffffffffffffffffffffff168773ffffffffffffffffffffffffffffffffffffffff1614611244578060008084815260200190815260200160002060008973ffffffffffffffffffffffffffffffffffffffff1673ffffffffffffffffffffffffffffffffffffffff168152602001908152602001600020600082825461123c9190612251565b925050819055505b505080611250906121c4565b9050611047565b506001835103611316576000611277600085610a9790919063ffffffff16565b9050600061128f600085610a9790919063ffffffff16565b90508573ffffffffffffffffffffffffffffffffffffffff168773ffffffffffffffffffffffffffffffffffffffff168473ffffffffffffffffffffffffffffffffffffffff167fc3d58168c5ae7397731d063d5bbf3d657854427343f4c083240f7aacaa2d0f62858560405161130792919061213d565b60405180910390a45050611395565b8373ffffffffffffffffffffffffffffffffffffffff168573ffffffffffffffffffffffffffffffffffffffff168273ffffffffffffffffffffffffffffffffffffffff167f4a39dc06d4c0dbc64b70af90fd698a233a518aa5d07e595d983b8c0526c8f7fb868660405161138c929190612285565b60405180910390a45b5050505050565b60008473ffffffffffffffffffffffffffffffffffffffff163b1115611548578373ffffffffffffffffffffffffffffffffffffffff1663f23a6e6187878686866040518663ffffffff1660e01b81526004016113fd959493929190612311565b6020604051808303816000875af192505050801561143957506040513d601f19601f820116820180604052508101906114369190612380565b60015b6114bd573d8060008114611469576040519150601f19603f3d011682016040523d82523d6000602084013e61146e565b606091505b5060008151036114b557846040517f57f447ce0000000000000000000000000000000000000000000000000000000081526004016114ac9190611f29565b60405180910390fd5b805160208201fd5b63f23a6e6160e01b7bffffffffffffffffffffffffffffffffffffffffffffffffffffffff1916817bffffffffffffffffffffffffffffffffffffffffffffffffffffffff19161461154657846040517f57f447ce00000000000000000000000000000000000000000000000000000000815260040161153d9190611f29565b60405180910390fd5b505b505050505050565b60008473ffffffffffffffffffffffffffffffffffffffff163b11156116fc578373ffffffffffffffffffffffffffffffffffffffff1663bc197c8187878686866040518663ffffffff1660e01b81526004016115b19594939291906123ad565b6020604051808303816000875af19250505080156115ed57506040513d601f19601f820116820180604052508101906115ea9190612380565b60015b611671573d806000811461161d576040519150601f19603f3d011682016040523d82523d6000602084013e611622565b606091505b50600081510361166957846040517f57f447ce0000000000000000000000000000000000000000000000000000000081526004016116609190611f29565b60405180910390fd5b805160208201fd5b63bc197c8160e01b7bffffffffffffffffffffffffffffffffffffffffffffffffffffffff1916817bffffffffffffffffffffffffffffffffffffffffffffffffffffffff1916146116fa57846040517f57f447ce0000000000000000000000000000000000000000000000000000000081526004016116f19190611f29565b60405180910390fd5b505b505050505050565b6000604051905090565b600080fd5b600080fd5b600073ffffffffffffffffffffffffffffffffffffffff82169050919050565b600061174382611718565b9050919050565b61175381611738565b811461175e57600080fd5b50565b6000813590506117708161174a565b92915050565b6000819050919050565b61178981611776565b811461179457600080fd5b50565b6000813590506117a681611780565b92915050565b600080604083850312156117c3576117c261170e565b5b60006117d185828601611761565b92505060206117e285828601611797565b9150509250929050565b6117f581611776565b82525050565b600060208201905061181060008301846117ec565b92915050565b60007fffffffff0000000000000000000000000000000000000000000000000000000082169050919050565b61184b81611816565b811461185657600080fd5b50565b60008135905061186881611842565b92915050565b6000602082840312156118845761188361170e565b5b600061189284828501611859565b91505092915050565b60008115159050919050565b6118b08161189b565b82525050565b60006020820190506118cb60008301846118a7565b92915050565b6000602082840312156118e7576118e661170e565b5b60006118f584828501611797565b91505092915050565b600081519050919050565b600082825260208201905092915050565b60005b8381101561193857808201518184015260208101905061191d565b60008484015250505050565b6000601f19601f8301169050919050565b6000611960826118fe565b61196a8185611909565b935061197a81856020860161191a565b61198381611944565b840191505092915050565b600060208201905081810360008301526119a88184611955565b905092915050565b600080fd5b7f4e487b7100000000000000000000000000000000000000000000000000000000600052604160045260246000fd5b6119ed82611944565b810181811067ffffffffffffffff82111715611a0c57611a0b6119b5565b5b80604052505050565b6000611a1f611704565b9050611a2b82826119e4565b919050565b600067ffffffffffffffff821115611a4b57611a4a6119b5565b5b602082029050602081019050919050565b600080fd5b6000611a74611a6f84611a30565b611a15565b90508083825260208201905060208402830185811115611a9757611a96611a5c565b5b835b81811015611ac05780611aac8882611797565b845260208401935050602081019050611a99565b5050509392505050565b600082601f830112611adf57611ade6119b0565b5b8135611aef848260208601611a61565b91505092915050565b600080fd5b600067ffffffffffffffff821115611b1857611b176119b5565b5b611b2182611944565b9050602081019050919050565b82818337600083830152505050565b6000611b50611b4b84611afd565b611a15565b905082815260208101848484011115611b6c57611b6b611af8565b5b611b77848285611b2e565b509392505050565b600082601f830112611b9457611b936119b0565b5b8135611ba4848260208601611b3d565b91505092915050565b600080600080600060a08688031215611bc957611bc861170e565b5b6000611bd788828901611761565b9550506020611be888828901611761565b945050604086013567ffffffffffffffff811115611c0957611c08611713565b5b611c1588828901611aca565b935050606086013567ffffffffffffffff811115611c3657611c35611713565b5b611c4288828901611aca565b925050608086013567ffffffffffffffff811115611c6357611c62611713565b5b611c6f88828901611b7f565b9150509295509295909350565b600067ffffffffffffffff821115611c9757611c966119b5565b5b602082029050602081019050919050565b6000611cbb611cb684611c7c565b611a15565b90508083825260208201905060208402830185811115611cde57611cdd611a5c565b5b835b81811015611d075780611cf38882611761565b845260208401935050602081019050611ce0565b5050509392505050565b600082601f830112611d2657611d256119b0565b5b8135611d36848260208601611ca8565b91505092915050565b60008060408385031215611d5657611d5561170e565b5b600083013567ffffffffffffffff811115611d7457611d73611713565b5b611d8085828601611d11565b925050602083013567ffffffffffffffff811115611da157611da0611713565b5b611dad85828601611aca565b9150509250929050565b600081519050919050565b600082825260208201905092915050565b6000819050602082019050919050565b611dec81611776565b82525050565b6000611dfe8383611de3565b60208301905092915050565b6000602082019050919050565b6000611e2282611db7565b611e2c8185611dc2565b9350611e3783611dd3565b8060005b83811015611e68578151611e4f8882611df2565b9750611e5a83611e0a565b925050600181019050611e3b565b5085935050505092915050565b60006020820190508181036000830152611e8f8184611e17565b905092915050565b60008060008060808587031215611eb157611eb061170e565b5b6000611ebf87828801611761565b9450506020611ed087828801611797565b9350506040611ee187828801611797565b925050606085013567ffffffffffffffff811115611f0257611f01611713565b5b611f0e87828801611b7f565b91505092959194509250565b611f2381611738565b82525050565b6000602082019050611f3e6000830184611f1a565b92915050565b611f4d8161189b565b8114611f5857600080fd5b50565b600081359050611f6a81611f44565b92915050565b60008060408385031215611f8757611f8661170e565b5b6000611f9585828601611761565b9250506020611fa685828601611f5b565b9150509250929050565b60008060408385031215611fc757611fc661170e565b5b6000611fd585828601611761565b9250506020611fe685828601611761565b9150509250929050565b600080600080600060a0868803121561200c5761200b61170e565b5b600061201a88828901611761565b955050602061202b88828901611761565b945050604061203c88828901611797565b935050606061204d88828901611797565b925050608086013567ffffffffffffffff81111561206e5761206d611713565b5b61207a88828901611b7f565b9150509295509295909350565b60006020828403121561209d5761209c61170e565b5b60006120ab84828501611761565b91505092915050565b7f4e487b7100000000000000000000000000000000000000000000000000000000600052602260045260246000fd5b600060028204905060018216806120fb57607f821691505b60208210810361210e5761210d6120b4565b5b50919050565b60006040820190506121296000830185611f1a565b6121366020830184611f1a565b9392505050565b600060408201905061215260008301856117ec565b61215f60208301846117ec565b9392505050565b7f4e487b7100000000000000000000000000000000000000000000000000000000600052603260045260246000fd5b7f4e487b7100000000000000000000000000000000000000000000000000000000600052601160045260246000fd5b60006121cf82611776565b91507fffffffffffffffffffffffffffffffffffffffffffffffffffffffffffffffff820361220157612200612195565b5b600182019050919050565b60006080820190506122216000830187611f1a565b61222e60208301866117ec565b61223b60408301856117ec565b61224860608301846117ec565b95945050505050565b600061225c82611776565b915061226783611776565b925082820190508082111561227f5761227e612195565b5b92915050565b6000604082019050818103600083015261229f8185611e17565b905081810360208301526122b38184611e17565b90509392505050565b600081519050919050565b600082825260208201905092915050565b60006122e3826122bc565b6122ed81856122c7565b93506122fd81856020860161191a565b61230681611944565b840191505092915050565b600060a0820190506123266000830188611f1a565b6123336020830187611f1a565b61234060408301866117ec565b61234d60608301856117ec565b818103608083015261235f81846122d8565b90509695505050505050565b60008151905061237a81611842565b92915050565b6000602082840312156123965761239561170e565b5b60006123a48482850161236b565b91505092915050565b600060a0820190506123c26000830188611f1a565b6123cf6020830187611f1a565b81810360408301526123e18186611e17565b905081810360608301526123f58185611e17565b9050818103608083015261240981846122d8565b9050969550505050505056fea2646970667358221220b38c17a355ba08fbaca51ba3e77e5b701ec09e0bdc5c7f05f7ed5829383050c864736f6c63430008140033697066733a2f2f62616679626569686e6f757879706b33756677647368766234656a346d6476666367336467367179777967776467706c366732796973686c6d6b692f7b69647d2e6a736f6e",
  "linkReferences": {},
  "deployedLinkReferences": {}
}