{
  "contractName": "Token",
  "abi": [
    {
      "inputs": [
        {
          "internalType": "string",
          "name": "name",
          "type": "string"
        },
        {
          "internalType": "string",
          "name": "symbol",
          "type": "string"
        },
        {
          "internalType": "address",
          "name": "blAddress_",
          "type": "address"
        }
      ],
      "stateMutability": "nonpayable",
      "type": "constructor"
    },
    {
      "inputs": [
        {
          "internalType": "address",
          "name": "spender",
          "type": "address"
        },
        {
          "internalType": "uint256",
          "name": "allowance",
          "type": "uint256"
        },
        {
          "internalType": "uint256",
          "name": "needed",
          "type": "uint256"
        }
      ],
      "name": "ERC20InsufficientAllowance",
      "type": "error"
    },
    {
      "inputs": [
        {
          "internalType": "address",
          "name": "sender",
          "type": "address"
        },
        {
          "internalType": "uint256",
          "name": "balance",
          "type": "uint256"
        },
        {
          "internalType": "uint256",
          "name": "needed",
          "type": "uint256"
        }
      ],
      "name": "ERC20InsufficientBalance",
      "type": "error"
    },
    {
      "inputs": [
        {
          "internalType": "address",
          "name": "approver",
          "type": "address"
        }
      ],
      "name": "ERC20InvalidApprover",
      "type": "error"
    },
    {
      "inputs": [
        {
          "internalType": "address",
          "name": "receiver",
          "type": "address"
        }
      ],
      "name": "ERC20InvalidReceiver",
      "type": "error"
    },
    {
      "inputs": [
        {
          "internalType": "address",
          "name": "sender",
          "type": "address"
        }
      ],
      "name": "ERC20InvalidSender",
      "type": "error"
    },
    {
      "inputs": [
        {
          "internalType": "address",
          "name": "spender",
          "type": "address"
        }
      ],
      "name": "ERC20InvalidSpender",
      "type": "error"
    },
    {
      "inputs": [
        {
          "internalType": "address",
          "name": "owner",
          "type": "address"
        }
      ],
      "name": "OwnableInvalidOwner",
      "type": "error"
    },
    {
      "inputs": [
        {
          "internalType": "address",
          "name": "account",
          "type": "address"
        }
      ],
      "name": "OwnableUnauthorizedAccount",
      "type": "error"
    },
    {
      "anonymous": false,
      "inputs": [
        {
          "indexed": true,
          "internalType": "address",
          "name": "owner",
          "type": "address"
        },
        {
          "indexed": true,
          "internalType": "address",
          "name": "spender",
          "type": "address"
        },
        {
          "indexed": false,
          "internalType": "uint256",
          "name": "value",
          "type": "uint256"
        }
      ],
      "name": "Approval",
      "type": "event"
    },
    {
      "anonymous": false,
      "inputs": [
        {
          "indexed": true,
          "internalType": "address",
          "name": "previousOwner",
          "type": "address"
        },
        {
          "indexed": true,
          "internalType": "address",
          "name": "newOwner",
          "type": "address"
        }
      ],
      "name": "OwnershipTransferred",
      "type": "event"
    },
    {
      "anonymous": false,
      "inputs": [
        {
          "indexed": true,
          "internalType": "address",
          "name": "from",
          "type": "address"
        },
        {
          "indexed": true,
          "internalType": "address",
          "name": "to",
          "type": "address"
        },
        {
          "indexed": false,
          "internalType": "uint256",
          "name": "value",
          "type": "uint256"
        }
      ],
      "name": "Transfer",
      "type": "event"
    },
    {
      "inputs": [
        {
          "internalType": "address",
          "name": "owner",
          "type": "address"
        },
        {
          "internalType": "address",
          "name": "spender",
          "type": "address"
        }
      ],
      "name": "allowance",
      "outputs": [
        {
          "internalType": "uint256",
          "name": "",
          "type": "uint256"
        }
      ],
      "stateMutability": "view",
      "type": "function",
      "constant": true
    },
    {
      "inputs": [
        {
          "internalType": "address",
          "name": "spender",
          "type": "address"
        },
        {
          "internalType": "uint256",
          "name": "value",
          "type": "uint256"
        }
      ],
      "name": "approve",
      "outputs": [
        {
          "internalType": "bool",
          "name": "",
          "type": "bool"
        }
      ],
      "stateMutability": "nonpayable",
      "type": "function"
    },
    {
      "inputs": [
        {
          "internalType": "address",
          "name": "account",
          "type": "address"
        }
      ],
      "name": "balanceOf",
      "outputs": [
        {
          "internalType": "uint256",
          "name": "",
          "type": "uint256"
        }
      ],
      "stateMutability": "view",
      "type": "function",
      "constant": true
    },
    {
      "inputs": [],
      "name": "blAddress",
      "outputs": [
        {
          "internalType": "address",
          "name": "",
          "type": "address"
        }
      ],
      "stateMutability": "view",
      "type": "function",
      "constant": true
    },
    {
      "inputs": [],
      "name": "name",
      "outputs": [
        {
          "internalType": "string",
          "name": "",
          "type": "string"
        }
      ],
      "stateMutability": "view",
      "type": "function",
      "constant": true
    },
    {
      "inputs": [],
      "name": "owner",
      "outputs": [
        {
          "internalType": "address",
          "name": "",
          "type": "address"
        }
      ],
      "stateMutability": "view",
      "type": "function",
      "constant": true
    },
    {
      "inputs": [],
      "name": "renounceOwnership",
      "outputs": [],
      "stateMutability": "nonpayable",
      "type": "function"
    },
    {
      "inputs": [],
      "name": "symbol",
      "outputs": [
        {
          "internalType": "string",
          "name": "",
          "type": "string"
        }
      ],
      "stateMutability": "view",
      "type": "function",
      "constant": true
    },
    {
      "inputs": [],
      "name": "totalSupply",
      "outputs": [
        {
          "internalType": "uint256",
          "name": "",
          "type": "uint256"
        }
      ],
      "stateMutability": "view",
      "type": "function",
      "constant": true
    },
    {
      "inputs": [
        {
          "internalType": "address",
          "name": "from",
          "type": "address"
        },
        {
          "internalType": "address",
          "name": "to",
          "type": "address"
        },
        {
          "internalType": "uint256",
          "name": "value",
          "type": "uint256"
        }
      ],
      "name": "transferFrom",
      "outputs": [
        {
          "internalType": "bool",
          "name": "",
          "type": "bool"
        }
      ],
      "stateMutability": "nonpayable",
      "type": "function"
    },
    {
      "inputs": [
        {
          "internalType": "address",
          "name": "newOwner",
          "type": "address"
        }
      ],
      "name": "transferOwnership",
      "outputs": [],
      "stateMutability": "nonpayable",
      "type": "function"
    },
    {
      "inputs": [],
      "name": "decimals",
      "outputs": [
        {
          "internalType": "uint8",
          "name": "",
          "type": "uint8"
        }
      ],
      "stateMutability": "view",
      "type": "function",
      "constant": true
    },
    {
      "inputs": [
        {
          "internalType": "address",
          "name": "to",
          "type": "address"
        },
        {
          "internalType": "uint256",
          "name": "amount",
          "type": "uint256"
        }
      ],
      "name": "mint",
      "outputs": [],
      "stateMutability": "nonpayable",
      "type": "function"
    },
    {
      "inputs": [
        {
          "internalType": "uint256",
          "name": "amount",
          "type": "uint256"
        }
      ],
      "name": "burn",
      "outputs": [],
      "stateMutability": "nonpayable",
      "type": "function"
    },
    {
      "inputs": [
        {
          "internalType": "address",
          "name": "to",
          "type": "address"
        },
        {
          "internalType": "uint256",
          "name": "value",
          "type": "uint256"
        }
      ],
      "name": "transfer",
      "outputs": [
        {
          "internalType": "bool",
          "name": "",
          "type": "bool"
        }
      ],
      "stateMutability": "nonpayable",
      "type": "function"
    }
  ],
  "bytecode": "0x608060405234801562000010575f80fd5b5060405162001a5138038062001a518339818101604052810190620000369190620003ec565b620000466200013c60201b60201c565b83838160039081620000599190620006ba565b5080600490816200006b9190620006ba565b5050505f73ffffffffffffffffffffffffffffffffffffffff168173ffffffffffffffffffffffffffffffffffffffff1603620000e1575f6040517f1e4fbdf7000000000000000000000000000000000000000000000000000000008152600401620000d89190620007af565b60405180910390fd5b620000f2816200014360201b60201c565b508060065f6101000a81548173ffffffffffffffffffffffffffffffffffffffff021916908373ffffffffffffffffffffffffffffffffffffffff160217905550505050620007ca565b5f33905090565b5f60055f9054906101000a900473ffffffffffffffffffffffffffffffffffffffff1690508160055f6101000a81548173ffffffffffffffffffffffffffffffffffffffff021916908373ffffffffffffffffffffffffffffffffffffffff1602179055508173ffffffffffffffffffffffffffffffffffffffff168173ffffffffffffffffffffffffffffffffffffffff167f8be0079c531659141344cd1fd0a4f28419497f9722a3daafe3b4186f6b6457e060405160405180910390a35050565b5f604051905090565b5f80fd5b5f80fd5b5f80fd5b5f80fd5b5f601f19601f8301169050919050565b7f4e487b71000000000000000000000000000000000000000000000000000000005f52604160045260245ffd5b62000267826200021f565b810181811067ffffffffffffffff821117156200028957620002886200022f565b5b80604052505050565b5f6200029d62000206565b9050620002ab82826200025c565b919050565b5f67ffffffffffffffff821115620002cd57620002cc6200022f565b5b620002d8826200021f565b9050602081019050919050565b5f5b8381101562000304578082015181840152602081019050620002e7565b5f8484015250505050565b5f620003256200031f84620002b0565b62000292565b9050828152602081018484840111156200034457620003436200021b565b5b62000351848285620002e5565b509392505050565b5f82601f83011262000370576200036f62000217565b5b8151620003828482602086016200030f565b91505092915050565b5f73ffffffffffffffffffffffffffffffffffffffff82169050919050565b5f620003b6826200038b565b9050919050565b620003c881620003aa565b8114620003d3575f80fd5b50565b5f81519050620003e681620003bd565b92915050565b5f805f606084860312156200040657620004056200020f565b5b5f84015167ffffffffffffffff81111562000426576200042562000213565b5b620004348682870162000359565b935050602084015167ffffffffffffffff81111562000458576200045762000213565b5b620004668682870162000359565b92505060406200047986828701620003d6565b9150509250925092565b5f81519050919050565b7f4e487b71000000000000000000000000000000000000000000000000000000005f52602260045260245ffd5b5f6002820490506001821680620004d257607f821691505b602082108103620004e857620004e76200048d565b5b50919050565b5f819050815f5260205f209050919050565b5f6020601f8301049050919050565b5f82821b905092915050565b5f600883026200054c7fffffffffffffffffffffffffffffffffffffffffffffffffffffffffffffffff826200050f565b6200055886836200050f565b95508019841693508086168417925050509392505050565b5f819050919050565b5f819050919050565b5f620005a26200059c620005968462000570565b62000579565b62000570565b9050919050565b5f819050919050565b620005bd8362000582565b620005d5620005cc82620005a9565b8484546200051b565b825550505050565b5f90565b620005eb620005dd565b620005f8818484620005b2565b505050565b5b818110156200061f57620006135f82620005e1565b600181019050620005fe565b5050565b601f8211156200066e576200063881620004ee565b620006438462000500565b8101602085101562000653578190505b6200066b620006628562000500565b830182620005fd565b50505b505050565b5f82821c905092915050565b5f620006905f198460080262000673565b1980831691505092915050565b5f620006aa83836200067f565b9150826002028217905092915050565b620006c58262000483565b67ffffffffffffffff811115620006e157620006e06200022f565b5b620006ed8254620004ba565b620006fa82828562000623565b5f60209050601f83116001811462000730575f84156200071b578287015190505b6200072785826200069d565b86555062000796565b601f1984166200074086620004ee565b5f5b82811015620007695784890151825560018201915060208501945060208101905062000742565b8683101562000789578489015162000785601f8916826200067f565b8355505b6001600288020188555050505b505050505050565b620007a981620003aa565b82525050565b5f602082019050620007c45f8301846200079e565b92915050565b61127980620007d85f395ff3fe608060405234801561000f575f80fd5b50600436106100f3575f3560e01c806342966c681161009557806395d89b411161006457806395d89b411461025f578063a9059cbb1461027d578063dd62ed3e146102ad578063f2fde38b146102dd576100f3565b806342966c68146101eb57806370a0823114610207578063715018a6146102375780638da5cb5b14610241576100f3565b806318160ddd116100d157806318160ddd1461016357806323b872dd14610181578063313ce567146101b157806340c10f19146101cf576100f3565b806306fdde03146100f7578063095ea7b3146101155780630d1086ed14610145575b5f80fd5b6100ff6102f9565b60405161010c9190610ec7565b60405180910390f35b61012f600480360381019061012a9190610f78565b610389565b60405161013c9190610fd0565b60405180910390f35b61014d6103ab565b60405161015a9190610ff8565b60405180910390f35b61016b6103d0565b6040516101789190611020565b60405180910390f35b61019b60048036038101906101969190611039565b6103d9565b6040516101a89190610fd0565b60405180910390f35b6101b9610407565b6040516101c691906110a4565b60405180910390f35b6101e960048036038101906101e49190610f78565b61040f565b005b610205600480360381019061020091906110bd565b610425565b005b610221600480360381019061021c91906110e8565b610439565b60405161022e9190611020565b60405180910390f35b61023f61047e565b005b610249610491565b6040516102569190610ff8565b60405180910390f35b6102676104b9565b6040516102749190610ec7565b60405180910390f35b61029760048036038101906102929190610f78565b610549565b6040516102a49190610fd0565b60405180910390f35b6102c760048036038101906102c29190611113565b61056b565b6040516102d49190611020565b60405180910390f35b6102f760048036038101906102f291906110e8565b6105ed565b005b6060600380546103089061117e565b80601f01602080910402602001604051908101604052809291908181526020018280546103349061117e565b801561037f5780601f106103565761010080835404028352916020019161037f565b820191905f5260205f20905b81548152906001019060200180831161036257829003601f168201915b5050505050905090565b5f80610393610671565b90506103a0818585610678565b600191505092915050565b60065f9054906101000a900473ffffffffffffffffffffffffffffffffffffffff1681565b5f600254905090565b5f806103e3610671565b90506103f085828561068a565b6103fb85858561071d565b60019150509392505050565b5f6012905090565b61041761080d565b6104218282610894565b5050565b610436610430610671565b82610913565b50565b5f805f8373ffffffffffffffffffffffffffffffffffffffff1673ffffffffffffffffffffffffffffffffffffffff1681526020019081526020015f20549050919050565b61048661080d565b61048f5f610992565b565b5f60055f9054906101000a900473ffffffffffffffffffffffffffffffffffffffff16905090565b6060600480546104c89061117e565b80601f01602080910402602001604051908101604052809291908181526020018280546104f49061117e565b801561053f5780601f106105165761010080835404028352916020019161053f565b820191905f5260205f20905b81548152906001019060200180831161052257829003601f168201915b5050505050905090565b5f80610553610671565b905061056081858561071d565b600191505092915050565b5f60015f8473ffffffffffffffffffffffffffffffffffffffff1673ffffffffffffffffffffffffffffffffffffffff1681526020019081526020015f205f8373ffffffffffffffffffffffffffffffffffffffff1673ffffffffffffffffffffffffffffffffffffffff1681526020019081526020015f2054905092915050565b6105f561080d565b5f73ffffffffffffffffffffffffffffffffffffffff168173ffffffffffffffffffffffffffffffffffffffff1603610665575f6040517f1e4fbdf700000000000000000000000000000000000000000000000000000000815260040161065c9190610ff8565b60405180910390fd5b61066e81610992565b50565b5f33905090565b6106858383836001610a55565b505050565b5f610695848461056b565b90507fffffffffffffffffffffffffffffffffffffffffffffffffffffffffffffffff8110156107175781811015610708578281836040517ffb8f41b20000000000000000000000000000000000000000000000000000000081526004016106ff939291906111ae565b60405180910390fd5b61071684848484035f610a55565b5b50505050565b5f73ffffffffffffffffffffffffffffffffffffffff168373ffffffffffffffffffffffffffffffffffffffff160361078d575f6040517f96c6fd1e0000000000000000000000000000000000000000000000000000000081526004016107849190610ff8565b60405180910390fd5b5f73ffffffffffffffffffffffffffffffffffffffff168273ffffffffffffffffffffffffffffffffffffffff16036107fd575f6040517fec442f050000000000000000000000000000000000000000000000000000000081526004016107f49190610ff8565b60405180910390fd5b610808838383610c24565b505050565b610815610671565b73ffffffffffffffffffffffffffffffffffffffff16610833610491565b73ffffffffffffffffffffffffffffffffffffffff161461089257610856610671565b6040517f118cdaa70000000000000000000000000000000000000000000000000000000081526004016108899190610ff8565b60405180910390fd5b565b5f73ffffffffffffffffffffffffffffffffffffffff168273ffffffffffffffffffffffffffffffffffffffff1603610904575f6040517fec442f050000000000000000000000000000000000000000000000000000000081526004016108fb9190610ff8565b60405180910390fd5b61090f5f8383610c24565b5050565b5f73ffffffffffffffffffffffffffffffffffffffff168273ffffffffffffffffffffffffffffffffffffffff1603610983575f6040517f96c6fd1e00000000000000000000000000000000000000000000000000000000815260040161097a9190610ff8565b60405180910390fd5b61098e825f83610c24565b5050565b5f60055f9054906101000a900473ffffffffffffffffffffffffffffffffffffffff1690508160055f6101000a81548173ffffffffffffffffffffffffffffffffffffffff021916908373ffffffffffffffffffffffffffffffffffffffff1602179055508173ffffffffffffffffffffffffffffffffffffffff168173ffffffffffffffffffffffffffffffffffffffff167f8be0079c531659141344cd1fd0a4f28419497f9722a3daafe3b4186f6b6457e060405160405180910390a35050565b5f73ffffffffffffffffffffffffffffffffffffffff168473ffffffffffffffffffffffffffffffffffffffff1603610ac5575f6040517fe602df05000000000000000000000000000000000000000000000000000000008152600401610abc9190610ff8565b60405180910390fd5b5f73ffffffffffffffffffffffffffffffffffffffff168373ffffffffffffffffffffffffffffffffffffffff1603610b35575f6040517f94280d62000000000000000000000000000000000000000000000000000000008152600401610b2c9190610ff8565b60405180910390fd5b8160015f8673ffffffffffffffffffffffffffffffffffffffff1673ffffffffffffffffffffffffffffffffffffffff1681526020019081526020015f205f8573ffffffffffffffffffffffffffffffffffffffff1673ffffffffffffffffffffffffffffffffffffffff1681526020019081526020015f20819055508015610c1e578273ffffffffffffffffffffffffffffffffffffffff168473ffffffffffffffffffffffffffffffffffffffff167f8c5be1e5ebec7d5bd14f71427d1e84f3dd0314c0f7b2291e5b200ac8c7c3b92584604051610c159190611020565b60405180910390a35b50505050565b5f73ffffffffffffffffffffffffffffffffffffffff168373ffffffffffffffffffffffffffffffffffffffff1603610c74578060025f828254610c689190611210565b92505081905550610d42565b5f805f8573ffffffffffffffffffffffffffffffffffffffff1673ffffffffffffffffffffffffffffffffffffffff1681526020019081526020015f2054905081811015610cfd578381836040517fe450d38c000000000000000000000000000000000000000000000000000000008152600401610cf4939291906111ae565b60405180910390fd5b8181035f808673ffffffffffffffffffffffffffffffffffffffff1673ffffffffffffffffffffffffffffffffffffffff1681526020019081526020015f2081905550505b5f73ffffffffffffffffffffffffffffffffffffffff168273ffffffffffffffffffffffffffffffffffffffff1603610d89578060025f8282540392505081905550610dd3565b805f808473ffffffffffffffffffffffffffffffffffffffff1673ffffffffffffffffffffffffffffffffffffffff1681526020019081526020015f205f82825401925050819055505b8173ffffffffffffffffffffffffffffffffffffffff168373ffffffffffffffffffffffffffffffffffffffff167fddf252ad1be2c89b69c2b068fc378daa952ba7f163c4a11628f55a4df523b3ef83604051610e309190611020565b60405180910390a3505050565b5f81519050919050565b5f82825260208201905092915050565b5f5b83811015610e74578082015181840152602081019050610e59565b5f8484015250505050565b5f601f19601f8301169050919050565b5f610e9982610e3d565b610ea38185610e47565b9350610eb3818560208601610e57565b610ebc81610e7f565b840191505092915050565b5f6020820190508181035f830152610edf8184610e8f565b905092915050565b5f80fd5b5f73ffffffffffffffffffffffffffffffffffffffff82169050919050565b5f610f1482610eeb565b9050919050565b610f2481610f0a565b8114610f2e575f80fd5b50565b5f81359050610f3f81610f1b565b92915050565b5f819050919050565b610f5781610f45565b8114610f61575f80fd5b50565b5f81359050610f7281610f4e565b92915050565b5f8060408385031215610f8e57610f8d610ee7565b5b5f610f9b85828601610f31565b9250506020610fac85828601610f64565b9150509250929050565b5f8115159050919050565b610fca81610fb6565b82525050565b5f602082019050610fe35f830184610fc1565b92915050565b610ff281610f0a565b82525050565b5f60208201905061100b5f830184610fe9565b92915050565b61101a81610f45565b82525050565b5f6020820190506110335f830184611011565b92915050565b5f805f606084860312156110505761104f610ee7565b5b5f61105d86828701610f31565b935050602061106e86828701610f31565b925050604061107f86828701610f64565b9150509250925092565b5f60ff82169050919050565b61109e81611089565b82525050565b5f6020820190506110b75f830184611095565b92915050565b5f602082840312156110d2576110d1610ee7565b5b5f6110df84828501610f64565b91505092915050565b5f602082840312156110fd576110fc610ee7565b5b5f61110a84828501610f31565b91505092915050565b5f806040838503121561112957611128610ee7565b5b5f61113685828601610f31565b925050602061114785828601610f31565b9150509250929050565b7f4e487b71000000000000000000000000000000000000000000000000000000005f52602260045260245ffd5b5f600282049050600182168061119557607f821691505b6020821081036111a8576111a7611151565b5b50919050565b5f6060820190506111c15f830186610fe9565b6111ce6020830185611011565b6111db6040830184611011565b949350505050565b7f4e487b71000000000000000000000000000000000000000000000000000000005f52601160045260245ffd5b5f61121a82610f45565b915061122583610f45565b925082820190508082111561123d5761123c6111e3565b5b9291505056fea26469706673582212205065026e7732f082bac941337d12a9aa476ec7b7fed8efe1b0e7a6906c897cef64736f6c63430008150033",
  "immutableReferences": {},
  "source": "// SPDX-License-Identifier: MIT\r\npragma solidity ^0.8.21;\r\n\r\nimport \"@openzeppelin/contracts/token/ERC20/ERC20.sol\";\r\nimport \"@openzeppelin/contracts/access/Ownable.sol\";\r\nimport \"./interfaces/IBlacklist.sol\";\r\n\r\n\r\ncontract Token is ERC20, Ownable {\r\n   // uint8 public _decimals = 18;\r\n    address public blAddress;\r\n\r\n\r\n\r\n    constructor(string memory name, string memory symbol, address blAddress_) ERC20(name, symbol) Ownable(_msgSender()) {\r\n        blAddress = blAddress_;\r\n        //decimals();\r\n    }\r\n    \r\n    function decimals() public view virtual override returns (uint8) {\r\n        return 18; // Standard for ERC20 tokens\r\n    }\r\n    function mint(address to, uint256 amount) public onlyOwner {\r\n        _mint(to, amount);\r\n    }\r\n    function burn(uint256 amount) public {\r\n        _burn(_msgSender(), amount);\r\n        \r\n    }\r\n\r\n    function transfer(address from, address to, uint256 amount) internal virtual  {\r\n        require(to != address(0), \"ERC20: transfer to the zero address\");\r\n        require(from != address(0), \"ERC20: transfer from the zero address\");\r\n        super._transfer(from, to, amount);\r\n    }\r\n\r\n    function _beforeTokenTransfer(address from, address to, uint256 amount) internal view  {\r\n        amount;\r\n        if(IBlacklist(blAddress).isBlacklisted(to) || IBlacklist(blAddress).isBlacklisted(from)) {\r\n            revert(\"Transfer not allowed: address is blacklisted\");\r\n        }\r\n\r\n    }}\r\n",
  "sourcePath": "/mnt/c/Users/andre/OneDrive/Documenti/Solidity/Homework1/contracts/Token.sol",
  "compiler": {
    "name": "solc",
    "version": "0.8.21+commit.d9974bed.Emscripten.clang"
  },
  "schemaVersion": "3.4.16",
  "updatedAt": "2025-07-30T22:02:11.306Z",
  "networkType": "ethereum",
  "devdoc": {
    "errors": {
      "ERC20InsufficientAllowance(address,uint256,uint256)": [
        {
          "details": "Indicates a failure with the `spender`s `allowance`. Used in transfers.",
          "params": {
            "allowance": "Amount of tokens a `spender` is allowed to operate with.",
            "needed": "Minimum amount required to perform a transfer.",
            "spender": "Address that may be allowed to operate on tokens without being their owner."
          }
        }
      ],
      "ERC20InsufficientBalance(address,uint256,uint256)": [
        {
          "details": "Indicates an error related to the current `balance` of a `sender`. Used in transfers.",
          "params": {
            "balance": "Current balance for the interacting account.",
            "needed": "Minimum amount required to perform a transfer.",
            "sender": "Address whose tokens are being transferred."
          }
        }
      ],
      "ERC20InvalidApprover(address)": [
        {
          "details": "Indicates a failure with the `approver` of a token to be approved. Used in approvals.",
          "params": {
            "approver": "Address initiating an approval operation."
          }
        }
      ],
      "ERC20InvalidReceiver(address)": [
        {
          "details": "Indicates a failure with the token `receiver`. Used in transfers.",
          "params": {
            "receiver": "Address to which tokens are being transferred."
          }
        }
      ],
      "ERC20InvalidSender(address)": [
        {
          "details": "Indicates a failure with the token `sender`. Used in transfers.",
          "params": {
            "sender": "Address whose tokens are being transferred."
          }
        }
      ],
      "ERC20InvalidSpender(address)": [
        {
          "details": "Indicates a failure with the `spender` to be approved. Used in approvals.",
          "params": {
            "spender": "Address that may be allowed to operate on tokens without being their owner."
          }
        }
      ],
      "OwnableInvalidOwner(address)": [
        {
          "details": "The owner is not a valid owner account. (eg. `address(0)`)"
        }
      ],
      "OwnableUnauthorizedAccount(address)": [
        {
          "details": "The caller account is not authorized to perform an operation."
        }
      ]
    },
    "events": {
      "Approval(address,address,uint256)": {
        "details": "Emitted when the allowance of a `spender` for an `owner` is set by a call to {approve}. `value` is the new allowance."
      },
      "Transfer(address,address,uint256)": {
        "details": "Emitted when `value` tokens are moved from one account (`from`) to another (`to`). Note that `value` may be zero."
      }
    },
    "kind": "dev",
    "methods": {
      "allowance(address,address)": {
        "details": "Returns the remaining number of tokens that `spender` will be allowed to spend on behalf of `owner` through {transferFrom}. This is zero by default. This value changes when {approve} or {transferFrom} are called."
      },
      "approve(address,uint256)": {
        "details": "See {IERC20-approve}. NOTE: If `value` is the maximum `uint256`, the allowance is not updated on `transferFrom`. This is semantically equivalent to an infinite approval. Requirements: - `spender` cannot be the zero address."
      },
      "balanceOf(address)": {
        "details": "Returns the value of tokens owned by `account`."
      },
      "decimals()": {
        "details": "Returns the number of decimals used to get its user representation. For example, if `decimals` equals `2`, a balance of `505` tokens should be displayed to a user as `5.05` (`505 / 10 ** 2`). Tokens usually opt for a value of 18, imitating the relationship between Ether and Wei. This is the default value returned by this function, unless it's overridden. NOTE: This information is only used for _display_ purposes: it in no way affects any of the arithmetic of the contract, including {IERC20-balanceOf} and {IERC20-transfer}."
      },
      "name()": {
        "details": "Returns the name of the token."
      },
      "owner()": {
        "details": "Returns the address of the current owner."
      },
      "renounceOwnership()": {
        "details": "Leaves the contract without owner. It will not be possible to call `onlyOwner` functions. Can only be called by the current owner. NOTE: Renouncing ownership will leave the contract without an owner, thereby disabling any functionality that is only available to the owner."
      },
      "symbol()": {
        "details": "Returns the symbol of the token, usually a shorter version of the name."
      },
      "totalSupply()": {
        "details": "Returns the value of tokens in existence."
      },
      "transfer(address,uint256)": {
        "details": "See {IERC20-transfer}. Requirements: - `to` cannot be the zero address. - the caller must have a balance of at least `value`."
      },
      "transferFrom(address,address,uint256)": {
        "details": "See {IERC20-transferFrom}. Skips emitting an {Approval} event indicating an allowance update. This is not required by the ERC. See {xref-ERC20-_approve-address-address-uint256-bool-}[_approve]. NOTE: Does not update the allowance if the current allowance is the maximum `uint256`. Requirements: - `from` and `to` cannot be the zero address. - `from` must have a balance of at least `value`. - the caller must have allowance for ``from``'s tokens of at least `value`."
      },
      "transferOwnership(address)": {
        "details": "Transfers ownership of the contract to a new account (`newOwner`). Can only be called by the current owner."
      }
    },
    "version": 1
  },
  "userdoc": {
    "kind": "user",
    "methods": {},
    "version": 1
  }
}