{
  "contractName": "Blacklist",
  "abi": [
    {
      "inputs": [],
      "stateMutability": "nonpayable",
      "type": "constructor"
    },
    {
      "inputs": [
        {
          "internalType": "address",
          "name": "owner",
          "type": "address"
        }
      ],
      "name": "OwnableInvalidOwner",
      "type": "error"
    },
    {
      "inputs": [
        {
          "internalType": "address",
          "name": "account",
          "type": "address"
        }
      ],
      "name": "OwnableUnauthorizedAccount",
      "type": "error"
    },
    {
      "anonymous": false,
      "inputs": [
        {
          "indexed": true,
          "internalType": "address",
          "name": "previousOwner",
          "type": "address"
        },
        {
          "indexed": true,
          "internalType": "address",
          "name": "newOwner",
          "type": "address"
        }
      ],
      "name": "OwnershipTransferred",
      "type": "event"
    },
    {
      "inputs": [],
      "name": "owner",
      "outputs": [
        {
          "internalType": "address",
          "name": "",
          "type": "address"
        }
      ],
      "stateMutability": "view",
      "type": "function",
      "constant": true
    },
    {
      "inputs": [],
      "name": "renounceOwnership",
      "outputs": [],
      "stateMutability": "nonpayable",
      "type": "function"
    },
    {
      "inputs": [
        {
          "internalType": "address",
          "name": "newOwner",
          "type": "address"
        }
      ],
      "name": "transferOwnership",
      "outputs": [],
      "stateMutability": "nonpayable",
      "type": "function"
    },
    {
      "inputs": [
        {
          "internalType": "address[]",
          "name": "array",
          "type": "address[]"
        }
      ],
      "name": "setBlacklist",
      "outputs": [],
      "stateMutability": "nonpayable",
      "type": "function"
    },
    {
      "inputs": [
        {
          "internalType": "address[]",
          "name": "array",
          "type": "address[]"
        }
      ],
      "name": "resetBlacklist",
      "outputs": [],
      "stateMutability": "nonpayable",
      "type": "function"
    },
    {
      "inputs": [
        {
          "internalType": "address",
          "name": "account",
          "type": "address"
        }
      ],
      "name": "isBlacklisted",
      "outputs": [
        {
          "internalType": "bool",
          "name": "",
          "type": "bool"
        }
      ],
      "stateMutability": "view",
      "type": "function",
      "constant": true
    }
  ],
  "bytecode": "0x608060405234801561000f575f80fd5b50335f73ffffffffffffffffffffffffffffffffffffffff168173ffffffffffffffffffffffffffffffffffffffff1603610081575f6040517f1e4fbdf70000000000000000000000000000000000000000000000000000000081526004016100789190610196565b60405180910390fd5b6100908161009660201b60201c565b506101af565b5f805f9054906101000a900473ffffffffffffffffffffffffffffffffffffffff169050815f806101000a81548173ffffffffffffffffffffffffffffffffffffffff021916908373ffffffffffffffffffffffffffffffffffffffff1602179055508173ffffffffffffffffffffffffffffffffffffffff168173ffffffffffffffffffffffffffffffffffffffff167f8be0079c531659141344cd1fd0a4f28419497f9722a3daafe3b4186f6b6457e060405160405180910390a35050565b5f73ffffffffffffffffffffffffffffffffffffffff82169050919050565b5f61018082610157565b9050919050565b61019081610176565b82525050565b5f6020820190506101a95f830184610187565b92915050565b610733806101bc5f395ff3fe608060405234801561000f575f80fd5b5060043610610060575f3560e01c80637018562c14610064578063715018a6146100805780638da5cb5b1461008a578063bf772491146100a8578063f2fde38b146100c4578063fe575a87146100e0575b5f80fd5b61007e60048036038101906100799190610528565b610110565b005b6100886101b8565b005b6100926101cb565b60405161009f91906105b2565b60405180910390f35b6100c260048036038101906100bd9190610528565b6101f2565b005b6100de60048036038101906100d991906105f5565b61029a565b005b6100fa60048036038101906100f591906105f5565b61031e565b604051610107919061063a565b60405180910390f35b610118610370565b5f5b828290508110156101b3575f60015f85858581811061013c5761013b610653565b5b905060200201602081019061015191906105f5565b73ffffffffffffffffffffffffffffffffffffffff1673ffffffffffffffffffffffffffffffffffffffff1681526020019081526020015f205f6101000a81548160ff02191690831515021790555080806101ab906106b6565b91505061011a565b505050565b6101c0610370565b6101c95f6103f7565b565b5f805f9054906101000a900473ffffffffffffffffffffffffffffffffffffffff16905090565b6101fa610370565b5f5b82829050811015610295576001805f85858581811061021e5761021d610653565b5b905060200201602081019061023391906105f5565b73ffffffffffffffffffffffffffffffffffffffff1673ffffffffffffffffffffffffffffffffffffffff1681526020019081526020015f205f6101000a81548160ff021916908315150217905550808061028d906106b6565b9150506101fc565b505050565b6102a2610370565b5f73ffffffffffffffffffffffffffffffffffffffff168173ffffffffffffffffffffffffffffffffffffffff1603610312575f6040517f1e4fbdf700000000000000000000000000000000000000000000000000000000815260040161030991906105b2565b60405180910390fd5b61031b816103f7565b50565b5f60015f8373ffffffffffffffffffffffffffffffffffffffff1673ffffffffffffffffffffffffffffffffffffffff1681526020019081526020015f205f9054906101000a900460ff169050919050565b6103786104b8565b73ffffffffffffffffffffffffffffffffffffffff166103966101cb565b73ffffffffffffffffffffffffffffffffffffffff16146103f5576103b96104b8565b6040517f118cdaa70000000000000000000000000000000000000000000000000000000081526004016103ec91906105b2565b60405180910390fd5b565b5f805f9054906101000a900473ffffffffffffffffffffffffffffffffffffffff169050815f806101000a81548173ffffffffffffffffffffffffffffffffffffffff021916908373ffffffffffffffffffffffffffffffffffffffff1602179055508173ffffffffffffffffffffffffffffffffffffffff168173ffffffffffffffffffffffffffffffffffffffff167f8be0079c531659141344cd1fd0a4f28419497f9722a3daafe3b4186f6b6457e060405160405180910390a35050565b5f33905090565b5f80fd5b5f80fd5b5f80fd5b5f80fd5b5f80fd5b5f8083601f8401126104e8576104e76104c7565b5b8235905067ffffffffffffffff811115610505576105046104cb565b5b602083019150836020820283011115610521576105206104cf565b5b9250929050565b5f806020838503121561053e5761053d6104bf565b5b5f83013567ffffffffffffffff81111561055b5761055a6104c3565b5b610567858286016104d3565b92509250509250929050565b5f73ffffffffffffffffffffffffffffffffffffffff82169050919050565b5f61059c82610573565b9050919050565b6105ac81610592565b82525050565b5f6020820190506105c55f8301846105a3565b92915050565b6105d481610592565b81146105de575f80fd5b50565b5f813590506105ef816105cb565b92915050565b5f6020828403121561060a576106096104bf565b5b5f610617848285016105e1565b91505092915050565b5f8115159050919050565b61063481610620565b82525050565b5f60208201905061064d5f83018461062b565b92915050565b7f4e487b71000000000000000000000000000000000000000000000000000000005f52603260045260245ffd5b7f4e487b71000000000000000000000000000000000000000000000000000000005f52601160045260245ffd5b5f819050919050565b5f6106c0826106ad565b91507fffffffffffffffffffffffffffffffffffffffffffffffffffffffffffffffff82036106f2576106f1610680565b5b60018201905091905056fea26469706673582212208014e7577833f989833331a2343e29e08c788a724ab6e99e6867a2c98c95f2fb64736f6c63430008150033",
  "immutableReferences": {},
  "source": "// SPDX-License-Identifier: MIT\r\npragma solidity ^0.8.21;\r\n\r\nimport \"@openzeppelin/contracts/access/Ownable.sol\";\r\n\r\ncontract Blacklist is Ownable {\r\n    mapping(address => bool) private _blacklisted;\r\n\r\nconstructor() Ownable(msg.sender) {}\r\n\r\nfunction setBlacklist(address[] calldata array) external onlyOwner {\r\n    for (uint256 i = 0; i < array.length; i++) {\r\n        _blacklisted[array[i]] = true;\r\n    }\r\n}\r\nfunction resetBlacklist(address[] calldata array) external onlyOwner {\r\n    for (uint256 i = 0; i < array.length; i++) {\r\n        _blacklisted[array[i]] = false;\r\n    }\r\n}\r\n\r\nfunction isBlacklisted(address account) external view returns (bool) {\r\n    return _blacklisted[account];\r\n}\r\n}",
  "sourcePath": "/mnt/c/Users/andre/OneDrive/Documenti/Solidity/Homework1/contracts/Blacklist.sol",
  "compiler": {
    "name": "solc",
    "version": "0.8.21+commit.d9974bed.Emscripten.clang"
  },
  "schemaVersion": "3.4.16",
  "updatedAt": "2025-07-30T22:02:11.325Z",
  "networkType": "ethereum",
  "devdoc": {
    "errors": {
      "OwnableInvalidOwner(address)": [
        {
          "details": "The owner is not a valid owner account. (eg. `address(0)`)"
        }
      ],
      "OwnableUnauthorizedAccount(address)": [
        {
          "details": "The caller account is not authorized to perform an operation."
        }
      ]
    },
    "kind": "dev",
    "methods": {
      "owner()": {
        "details": "Returns the address of the current owner."
      },
      "renounceOwnership()": {
        "details": "Leaves the contract without owner. It will not be possible to call `onlyOwner` functions. Can only be called by the current owner. NOTE: Renouncing ownership will leave the contract without an owner, thereby disabling any functionality that is only available to the owner."
      },
      "transferOwnership(address)": {
        "details": "Transfers ownership of the contract to a new account (`newOwner`). Can only be called by the current owner."
      }
    },
    "version": 1
  },
  "userdoc": {
    "kind": "user",
    "methods": {},
    "version": 1
  }
}